{
  "_format": "hh-sol-artifact-1",
  "contractName": "PredictionFactory",
  "sourceName": "contracts/PredictionFactory.sol",
  "abi": [
    {
      "inputs": [],
      "name": "InvalidAmount",
      "type": "error"
    },
    {
      "inputs": [],
      "name": "InvalidOption",
      "type": "error"
    },
    {
      "inputs": [],
      "name": "InvalidStatus",
      "type": "error"
    },
    {
      "inputs": [],
      "name": "NoBetToClaim",
      "type": "error"
    },
    {
      "inputs": [],
      "name": "PredictionNotFound",
      "type": "error"
    },
    {
      "inputs": [],
      "name": "TransferFailed",
      "type": "error"
    },
    {
      "inputs": [],
      "name": "Unauthorized",
      "type": "error"
    },
    {
      "anonymous": false,
      "inputs": [
        {
          "indexed": true,
          "internalType": "uint256",
          "name": "predictionId",
          "type": "uint256"
        },
        {
          "indexed": true,
          "internalType": "address",
          "name": "user",
          "type": "address"
        },
        {
          "indexed": false,
          "internalType": "uint8",
          "name": "option",
          "type": "uint8"
        },
        {
          "indexed": false,
          "internalType": "uint256",
          "name": "amount",
          "type": "uint256"
        }
      ],
      "name": "BetPlaced",
      "type": "event"
    },
    {
      "anonymous": false,
      "inputs": [
        {
          "indexed": true,
          "internalType": "uint256",
          "name": "predictionId",
          "type": "uint256"
        },
        {
          "indexed": true,
          "internalType": "address",
          "name": "user",
          "type": "address"
        },
        {
          "indexed": false,
          "internalType": "uint256",
          "name": "amount",
          "type": "uint256"
        }
      ],
      "name": "PayoutClaimed",
      "type": "event"
    },
    {
      "anonymous": false,
      "inputs": [
        {
          "indexed": true,
          "internalType": "uint256",
          "name": "predictionId",
          "type": "uint256"
        }
      ],
      "name": "PredictionCancelled",
      "type": "event"
    },
    {
      "anonymous": false,
      "inputs": [
        {
          "indexed": true,
          "internalType": "uint256",
          "name": "predictionId",
          "type": "uint256"
        },
        {
          "indexed": true,
          "internalType": "address",
          "name": "streamer",
          "type": "address"
        },
        {
          "indexed": false,
          "internalType": "string",
          "name": "title",
          "type": "string"
        },
        {
          "indexed": false,
          "internalType": "string",
          "name": "option1",
          "type": "string"
        },
        {
          "indexed": false,
          "internalType": "string",
          "name": "option2",
          "type": "string"
        }
      ],
      "name": "PredictionCreated",
      "type": "event"
    },
    {
      "anonymous": false,
      "inputs": [
        {
          "indexed": true,
          "internalType": "uint256",
          "name": "predictionId",
          "type": "uint256"
        }
      ],
      "name": "PredictionLocked",
      "type": "event"
    },
    {
      "anonymous": false,
      "inputs": [
        {
          "indexed": true,
          "internalType": "uint256",
          "name": "predictionId",
          "type": "uint256"
        },
        {
          "indexed": false,
          "internalType": "uint8",
          "name": "winningOption",
          "type": "uint8"
        }
      ],
      "name": "PredictionResolved",
      "type": "event"
    },
    {
      "inputs": [
        {
          "internalType": "address",
          "name": "moderator",
          "type": "address"
        }
      ],
      "name": "addStreamerModerator",
      "outputs": [],
      "stateMutability": "nonpayable",
      "type": "function"
    },
    {
      "inputs": [
        {
          "internalType": "uint256",
          "name": "predictionId",
          "type": "uint256"
        },
        {
          "internalType": "address",
          "name": "account",
          "type": "address"
        }
      ],
      "name": "canManagePrediction",
      "outputs": [
        {
          "internalType": "bool",
          "name": "",
          "type": "bool"
        }
      ],
      "stateMutability": "view",
      "type": "function"
    },
    {
      "inputs": [
        {
          "internalType": "uint256",
          "name": "predictionId",
          "type": "uint256"
        }
      ],
      "name": "cancelPrediction",
      "outputs": [],
      "stateMutability": "nonpayable",
      "type": "function"
    },
    {
      "inputs": [
        {
          "internalType": "uint256",
          "name": "predictionId",
          "type": "uint256"
        }
      ],
      "name": "claimRefund",
      "outputs": [],
      "stateMutability": "nonpayable",
      "type": "function"
    },
    {
      "inputs": [
        {
          "internalType": "uint256",
          "name": "predictionId",
          "type": "uint256"
        }
      ],
      "name": "claimWinnings",
      "outputs": [],
      "stateMutability": "nonpayable",
      "type": "function"
    },
    {
      "inputs": [
        {
          "internalType": "address",
          "name": "streamer",
          "type": "address"
        },
        {
          "internalType": "string",
          "name": "title",
          "type": "string"
        },
        {
          "internalType": "string",
          "name": "option1",
          "type": "string"
        },
        {
          "internalType": "string",
          "name": "option2",
          "type": "string"
        }
      ],
      "name": "createPrediction",
      "outputs": [
        {
          "internalType": "uint256",
          "name": "predictionId",
          "type": "uint256"
        }
      ],
      "stateMutability": "nonpayable",
      "type": "function"
    },
    {
      "inputs": [
        {
          "internalType": "uint256",
          "name": "predictionId",
          "type": "uint256"
        },
        {
          "internalType": "address",
          "name": "user",
          "type": "address"
        }
      ],
      "name": "getPayout",
      "outputs": [
        {
          "internalType": "uint256",
          "name": "",
          "type": "uint256"
        }
      ],
      "stateMutability": "view",
      "type": "function"
    },
    {
      "inputs": [
        {
          "internalType": "uint256",
          "name": "predictionId",
          "type": "uint256"
        },
        {
          "internalType": "address",
          "name": "user",
          "type": "address"
        }
      ],
      "name": "getRefundAmount",
      "outputs": [
        {
          "internalType": "uint256",
          "name": "",
          "type": "uint256"
        }
      ],
      "stateMutability": "view",
      "type": "function"
    },
    {
      "inputs": [
        {
          "internalType": "uint256",
          "name": "predictionId",
          "type": "uint256"
        }
      ],
      "name": "lockPrediction",
      "outputs": [],
      "stateMutability": "nonpayable",
      "type": "function"
    },
    {
      "inputs": [],
      "name": "nextPredictionId",
      "outputs": [
        {
          "internalType": "uint256",
          "name": "",
          "type": "uint256"
        }
      ],
      "stateMutability": "view",
      "type": "function"
    },
    {
      "inputs": [
        {
          "internalType": "uint256",
          "name": "predictionId",
          "type": "uint256"
        },
        {
          "internalType": "uint8",
          "name": "option",
          "type": "uint8"
        }
      ],
      "name": "placeBet",
      "outputs": [],
      "stateMutability": "payable",
      "type": "function"
    },
    {
      "inputs": [
        {
          "internalType": "uint256",
          "name": "",
          "type": "uint256"
        }
      ],
      "name": "predictions",
      "outputs": [
        {
          "internalType": "uint256",
          "name": "id",
          "type": "uint256"
        },
        {
          "internalType": "address",
          "name": "streamer",
          "type": "address"
        },
        {
          "internalType": "string",
          "name": "title",
          "type": "string"
        },
        {
          "internalType": "string",
          "name": "option1",
          "type": "string"
        },
        {
          "internalType": "string",
          "name": "option2",
          "type": "string"
        },
        {
          "internalType": "uint256",
          "name": "totalBetOption1",
          "type": "uint256"
        },
        {
          "internalType": "uint256",
          "name": "totalBetOption2",
          "type": "uint256"
        },
        {
          "internalType": "enum PredictionFactory.PredictionStatus",
          "name": "status",
          "type": "uint8"
        },
        {
          "internalType": "uint8",
          "name": "winningOption",
          "type": "uint8"
        },
        {
          "internalType": "uint256",
          "name": "lockTimestamp",
          "type": "uint256"
        }
      ],
      "stateMutability": "view",
      "type": "function"
    },
    {
      "inputs": [
        {
          "internalType": "address",
          "name": "moderator",
          "type": "address"
        }
      ],
      "name": "removeStreamerModerator",
      "outputs": [],
      "stateMutability": "nonpayable",
      "type": "function"
    },
    {
      "inputs": [
        {
          "internalType": "uint256",
          "name": "predictionId",
          "type": "uint256"
        },
        {
          "internalType": "uint8",
          "name": "winningOption",
          "type": "uint8"
        }
      ],
      "name": "resolvePrediction",
      "outputs": [],
      "stateMutability": "nonpayable",
      "type": "function"
    },
    {
      "inputs": [
        {
          "internalType": "address",
          "name": "",
          "type": "address"
        },
        {
          "internalType": "address",
          "name": "",
          "type": "address"
        }
      ],
      "name": "streamerModerators",
      "outputs": [
        {
          "internalType": "bool",
          "name": "",
          "type": "bool"
        }
      ],
      "stateMutability": "view",
      "type": "function"
    },
    {
      "inputs": [
        {
          "internalType": "uint256",
          "name": "",
          "type": "uint256"
        },
        {
          "internalType": "address",
          "name": "",
          "type": "address"
        },
        {
          "internalType": "uint8",
          "name": "",
          "type": "uint8"
        }
      ],
      "name": "userBets",
      "outputs": [
        {
          "internalType": "uint256",
          "name": "",
          "type": "uint256"
        }
      ],
      "stateMutability": "view",
      "type": "function"
    },
    {
      "stateMutability": "payable",
      "type": "receive"
    }
  ],
  "bytecode": "0x6080604052348015600f57600080fd5b506132ee8061001f6000396000f3fe6080604052600436106100f65760003560e01c80639805e9f61161008a578063d8d9292e11610059578063d8d9292e1461034e578063df0002a414610379578063e3fbfc77146103b6578063f53bba09146103df576100fd565b80639805e9f6146102825780639a18ec36146102ab578063b42d78eb146102e8578063d424e5a014610325576100fd565b80635b7baf64116100c65780635b7baf64146101ca578063677bd9ff146101f35780636aaea6dc1461021c5780637e4d850914610245576100fd565b80624fbbb01461010257806303edf914146101485780632ae3499c1461016457806355c07122146101a1576100fd565b366100fd57005b600080fd5b34801561010e57600080fd5b506101296004803603810190610124919061269a565b61041c565b60405161013f9a9998979695949392919061283a565b60405180910390f35b610162600480360381019061015d9190612917565b610642565b005b34801561017057600080fd5b5061018b60048036038101906101869190612983565b61090a565b60405161019891906129c3565b60405180910390f35b3480156101ad57600080fd5b506101c860048036038101906101c391906129de565b610a71565b005b3480156101d657600080fd5b506101f160048036038101906101ec919061269a565b610b09565b005b3480156101ff57600080fd5b5061021a6004803603810190610215919061269a565b610f1a565b005b34801561022857600080fd5b50610243600480360381019061023e9190612917565b6112dd565b005b34801561025157600080fd5b5061026c60048036038101906102679190612a70565b6116bd565b60405161027991906129c3565b60405180910390f35b34801561028e57600080fd5b506102a960048036038101906102a491906129de565b611b31565b005b3480156102b757600080fd5b506102d260048036038101906102cd9190612b39565b611bc9565b6040516102df9190612b94565b60405180910390f35b3480156102f457600080fd5b5061030f600480360381019061030a9190612baf565b611bf8565b60405161031c91906129c3565b60405180910390f35b34801561033157600080fd5b5061034c6004803603810190610347919061269a565b611c2a565b005b34801561035a57600080fd5b50610363611fd6565b60405161037091906129c3565b60405180910390f35b34801561038557600080fd5b506103a0600480360381019061039b9190612983565b611fdc565b6040516103ad9190612b94565b60405180910390f35b3480156103c257600080fd5b506103dd60048036038101906103d8919061269a565b612168565b005b3480156103eb57600080fd5b5061040660048036038101906104019190612983565b6124d9565b60405161041391906129c3565b60405180910390f35b60016020528060005260406000206000915090508060000154908060010160009054906101000a900473ffffffffffffffffffffffffffffffffffffffff169080600201805461046b90612c31565b80601f016020809104026020016040519081016040528092919081815260200182805461049790612c31565b80156104e45780601f106104b9576101008083540402835291602001916104e4565b820191906000526020600020905b8154815290600101906020018083116104c757829003601f168201915b5050505050908060030180546104f990612c31565b80601f016020809104026020016040519081016040528092919081815260200182805461052590612c31565b80156105725780601f1061054757610100808354040283529160200191610572565b820191906000526020600020905b81548152906001019060200180831161055557829003601f168201915b50505050509080600401805461058790612c31565b80601f01602080910402602001604051908101604052809291908181526020018280546105b390612c31565b80156106005780601f106105d557610100808354040283529160200191610600565b820191906000526020600020905b8154815290600101906020018083116105e357829003601f168201915b5050505050908060050154908060060154908060070160009054906101000a900460ff16908060070160019054906101000a900460ff1690806008015490508a565b81600073ffffffffffffffffffffffffffffffffffffffff166001600083815260200190815260200160002060010160009054906101000a900473ffffffffffffffffffffffffffffffffffffffff1673ffffffffffffffffffffffffffffffffffffffff16036106df576040517fb648cd7800000000000000000000000000000000000000000000000000000000815260040160405180910390fd5b60006001600085815260200190815260200160002090506000600381111561070a576107096127a7565b5b8160070160009054906101000a900460ff16600381111561072e5761072d6127a7565b5b14610765576040517ff525e32000000000000000000000000000000000000000000000000000000000815260040160405180910390fd5b60018360ff161415801561077d575060028360ff1614155b156107b4576040517f2a71953100000000000000000000000000000000000000000000000000000000815260040160405180910390fd5b600034036107ee576040517f2c5211c600000000000000000000000000000000000000000000000000000000815260040160405180910390fd5b346002600086815260200190815260200160002060003373ffffffffffffffffffffffffffffffffffffffff1673ffffffffffffffffffffffffffffffffffffffff16815260200190815260200160002060008560ff1660ff16815260200190815260200160002060008282546108659190612c91565b9250508190555060018360ff1603610897573481600501600082825461088b9190612c91565b925050819055506108b3565b348160060160008282546108ab9190612c91565b925050819055505b3373ffffffffffffffffffffffffffffffffffffffff16847f4f1eed5e863a822b0f9eb960dfdab2cc5a99beec4b191f2a7a9c7e28e5a1552485346040516108fc929190612cc5565b60405180910390a350505050565b60008060016000858152602001908152602001600020905060026003811115610936576109356127a7565b5b8160070160009054906101000a900460ff16600381111561095a576109596127a7565b5b14610969576000915050610a6b565b60006002600086815260200190815260200160002060008573ffffffffffffffffffffffffffffffffffffffff1673ffffffffffffffffffffffffffffffffffffffff16815260200190815260200160002060008360070160019054906101000a900460ff1660ff1660ff168152602001908152602001600020549050600081036109f957600092505050610a6b565b600060018360070160019054906101000a900460ff1660ff1614610a21578260060154610a27565b82600501545b9050600060018460070160019054906101000a900460ff1660ff1614610a51578360050154610a57565b83600601545b9050610a64838383612617565b9450505050505b92915050565b6001600360003373ffffffffffffffffffffffffffffffffffffffff1673ffffffffffffffffffffffffffffffffffffffff16815260200190815260200160002060008373ffffffffffffffffffffffffffffffffffffffff1673ffffffffffffffffffffffffffffffffffffffff16815260200190815260200160002060006101000a81548160ff02191690831515021790555050565b80600073ffffffffffffffffffffffffffffffffffffffff166001600083815260200190815260200160002060010160009054906101000a900473ffffffffffffffffffffffffffffffffffffffff1673ffffffffffffffffffffffffffffffffffffffff1603610ba6576040517fb648cd7800000000000000000000000000000000000000000000000000000000815260040160405180910390fd5b6000600160008481526020019081526020016000209050600380811115610bd057610bcf6127a7565b5b8160070160009054906101000a900460ff166003811115610bf457610bf36127a7565b5b14610c2b576040517ff525e32000000000000000000000000000000000000000000000000000000000815260040160405180910390fd5b60006002600085815260200190815260200160002060003373ffffffffffffffffffffffffffffffffffffffff1673ffffffffffffffffffffffffffffffffffffffff1681526020019081526020016000206000600160ff16815260200190815260200160002054905060006002600086815260200190815260200160002060003373ffffffffffffffffffffffffffffffffffffffff1673ffffffffffffffffffffffffffffffffffffffff1681526020019081526020016000206000600260ff16815260200190815260200160002054905060008183610d0d9190612c91565b905060008103610d49576040517f2f42cbdd00000000000000000000000000000000000000000000000000000000815260040160405180910390fd5b60006002600088815260200190815260200160002060003373ffffffffffffffffffffffffffffffffffffffff1673ffffffffffffffffffffffffffffffffffffffff1681526020019081526020016000206000600160ff1681526020019081526020016000208190555060006002600088815260200190815260200160002060003373ffffffffffffffffffffffffffffffffffffffff1673ffffffffffffffffffffffffffffffffffffffff1681526020019081526020016000206000600260ff1681526020019081526020016000208190555060003373ffffffffffffffffffffffffffffffffffffffff1682604051610e4590612d1f565b60006040518083038185875af1925050503d8060008114610e82576040519150601f19603f3d011682016040523d82523d6000602084013e610e87565b606091505b5050905080610ec2576040517f90b8ec1800000000000000000000000000000000000000000000000000000000815260040160405180910390fd5b3373ffffffffffffffffffffffffffffffffffffffff16877fe97cee5a4c0549d3fdc81e322b718ddf0aeb3418ec87dce4f9a7fb28d117c31284604051610f0991906129c3565b60405180910390a350505050505050565b80600073ffffffffffffffffffffffffffffffffffffffff166001600083815260200190815260200160002060010160009054906101000a900473ffffffffffffffffffffffffffffffffffffffff1673ffffffffffffffffffffffffffffffffffffffff1603610fb7576040517fb648cd7800000000000000000000000000000000000000000000000000000000815260040160405180910390fd5b600060016000848152602001908152602001600020905060026003811115610fe257610fe16127a7565b5b8160070160009054906101000a900460ff166003811115611006576110056127a7565b5b1461103d576040517ff525e32000000000000000000000000000000000000000000000000000000000815260040160405180910390fd5b60006002600085815260200190815260200160002060003373ffffffffffffffffffffffffffffffffffffffff1673ffffffffffffffffffffffffffffffffffffffff16815260200190815260200160002060008360070160019054906101000a900460ff1660ff1660ff168152602001908152602001600020549050600081036110f4576040517f2f42cbdd00000000000000000000000000000000000000000000000000000000815260040160405180910390fd5b600060018360070160019054906101000a900460ff1660ff161461111c578260060154611122565b82600501545b9050600060018460070160019054906101000a900460ff1660ff161461114c578360050154611152565b83600601545b905060006002600088815260200190815260200160002060003373ffffffffffffffffffffffffffffffffffffffff1673ffffffffffffffffffffffffffffffffffffffff16815260200190815260200160002060008660070160019054906101000a900460ff1660ff1660ff1681526020019081526020016000208190555060006111df848484612617565b905060003373ffffffffffffffffffffffffffffffffffffffff168260405161120790612d1f565b60006040518083038185875af1925050503d8060008114611244576040519150601f19603f3d011682016040523d82523d6000602084013e611249565b606091505b5050905080611284576040517f90b8ec1800000000000000000000000000000000000000000000000000000000815260040160405180910390fd5b3373ffffffffffffffffffffffffffffffffffffffff16887fe97cee5a4c0549d3fdc81e322b718ddf0aeb3418ec87dce4f9a7fb28d117c312846040516112cb91906129c3565b60405180910390a35050505050505050565b81600073ffffffffffffffffffffffffffffffffffffffff166001600083815260200190815260200160002060010160009054906101000a900473ffffffffffffffffffffffffffffffffffffffff1673ffffffffffffffffffffffffffffffffffffffff160361137a576040517fb648cd7800000000000000000000000000000000000000000000000000000000815260040160405180910390fd5b826000600160008381526020019081526020016000209050600073ffffffffffffffffffffffffffffffffffffffff168160010160009054906101000a900473ffffffffffffffffffffffffffffffffffffffff1673ffffffffffffffffffffffffffffffffffffffff160361141c576040517fb648cd7800000000000000000000000000000000000000000000000000000000815260040160405180910390fd5b8060010160009054906101000a900473ffffffffffffffffffffffffffffffffffffffff1673ffffffffffffffffffffffffffffffffffffffff163373ffffffffffffffffffffffffffffffffffffffff16141580156115275750600360008260010160009054906101000a900473ffffffffffffffffffffffffffffffffffffffff1673ffffffffffffffffffffffffffffffffffffffff1673ffffffffffffffffffffffffffffffffffffffff16815260200190815260200160002060003373ffffffffffffffffffffffffffffffffffffffff1673ffffffffffffffffffffffffffffffffffffffff16815260200190815260200160002060009054906101000a900460ff16155b1561155e576040517f82b4290000000000000000000000000000000000000000000000000000000000815260040160405180910390fd5b600060016000878152602001908152602001600020905060016003811115611589576115886127a7565b5b8160070160009054906101000a900460ff1660038111156115ad576115ac6127a7565b5b146115e4576040517ff525e32000000000000000000000000000000000000000000000000000000000815260040160405180910390fd5b60018560ff16141580156115fc575060028560ff1614155b15611633576040517f2a71953100000000000000000000000000000000000000000000000000000000815260040160405180910390fd5b60028160070160006101000a81548160ff0219169083600381111561165b5761165a6127a7565b5b0217905550848160070160016101000a81548160ff021916908360ff160217905550857fa04cc8b95d889d00fb177cca0ed67477aef48c963dfbc778e45e8e8b8dfcc59d866040516116ad9190612d34565b60405180910390a2505050505050565b60008773ffffffffffffffffffffffffffffffffffffffff163373ffffffffffffffffffffffffffffffffffffffff16148061177f5750600360008973ffffffffffffffffffffffffffffffffffffffff1673ffffffffffffffffffffffffffffffffffffffff16815260200190815260200160002060003373ffffffffffffffffffffffffffffffffffffffff1673ffffffffffffffffffffffffffffffffffffffff16815260200190815260200160002060009054906101000a900460ff165b6117be576040517f08c379a00000000000000000000000000000000000000000000000000000000081526004016117b590612d9b565b60405180910390fd5b60008787905011611804576040517f08c379a00000000000000000000000000000000000000000000000000000000081526004016117fb90612e07565b60405180910390fd5b60008585905011801561181a5750600083839050115b611859576040517f08c379a000000000000000000000000000000000000000000000000000000000815260040161185090612e73565b60405180910390fd5b60008081548092919061186b90612e93565b9190505590506040518061014001604052808281526020018973ffffffffffffffffffffffffffffffffffffffff16815260200188888080601f016020809104026020016040519081016040528093929190818152602001838380828437600081840152601f19601f82011690508083019250505050505050815260200186868080601f016020809104026020016040519081016040528093929190818152602001838380828437600081840152601f19601f82011690508083019250505050505050815260200184848080601f016020809104026020016040519081016040528093929190818152602001838380828437600081840152601f19601f82011690508083019250505050505050815260200160008152602001600081526020016000600381111561199f5761199e6127a7565b5b8152602001600060ff1681526020016000815250600160008381526020019081526020016000206000820151816000015560208201518160010160006101000a81548173ffffffffffffffffffffffffffffffffffffffff021916908373ffffffffffffffffffffffffffffffffffffffff1602179055506040820151816002019081611a2c91906130b6565b506060820151816003019081611a4291906130b6565b506080820151816004019081611a5891906130b6565b5060a0820151816005015560c0820151816006015560e08201518160070160006101000a81548160ff02191690836003811115611a9857611a976127a7565b5b02179055506101008201518160070160016101000a81548160ff021916908360ff16021790555061012082015181600801559050508773ffffffffffffffffffffffffffffffffffffffff16817f6333b2d21de9af2471046735e88724e59048f103c335c44c4e6704e59c768015898989898989604051611b1e969594939291906131c4565b60405180910390a3979650505050505050565b6000600360003373ffffffffffffffffffffffffffffffffffffffff1673ffffffffffffffffffffffffffffffffffffffff16815260200190815260200160002060008373ffffffffffffffffffffffffffffffffffffffff1673ffffffffffffffffffffffffffffffffffffffff16815260200190815260200160002060006101000a81548160ff02191690831515021790555050565b60036020528160005260406000206020528060005260406000206000915091509054906101000a900460ff1681565b600260205282600052604060002060205281600052604060002060205280600052604060002060009250925050505481565b80600073ffffffffffffffffffffffffffffffffffffffff166001600083815260200190815260200160002060010160009054906101000a900473ffffffffffffffffffffffffffffffffffffffff1673ffffffffffffffffffffffffffffffffffffffff1603611cc7576040517fb648cd7800000000000000000000000000000000000000000000000000000000815260040160405180910390fd5b816000600160008381526020019081526020016000209050600073ffffffffffffffffffffffffffffffffffffffff168160010160009054906101000a900473ffffffffffffffffffffffffffffffffffffffff1673ffffffffffffffffffffffffffffffffffffffff1603611d69576040517fb648cd7800000000000000000000000000000000000000000000000000000000815260040160405180910390fd5b8060010160009054906101000a900473ffffffffffffffffffffffffffffffffffffffff1673ffffffffffffffffffffffffffffffffffffffff163373ffffffffffffffffffffffffffffffffffffffff1614158015611e745750600360008260010160009054906101000a900473ffffffffffffffffffffffffffffffffffffffff1673ffffffffffffffffffffffffffffffffffffffff1673ffffffffffffffffffffffffffffffffffffffff16815260200190815260200160002060003373ffffffffffffffffffffffffffffffffffffffff1673ffffffffffffffffffffffffffffffffffffffff16815260200190815260200160002060009054906101000a900460ff16155b15611eab576040517f82b4290000000000000000000000000000000000000000000000000000000000815260040160405180910390fd5b600060016000868152602001908152602001600020905060006003811115611ed657611ed56127a7565b5b8160070160009054906101000a900460ff166003811115611efa57611ef96127a7565b5b14158015611f3e575060016003811115611f1757611f166127a7565b5b8160070160009054906101000a900460ff166003811115611f3b57611f3a6127a7565b5b14155b15611f75576040517ff525e32000000000000000000000000000000000000000000000000000000000815260040160405180910390fd5b60038160070160006101000a81548160ff02191690836003811115611f9d57611f9c6127a7565b5b0217905550847faf9d749692c27edb73692839024a98f047b114c6fd450acf3c702120928a2be260405160405180910390a25050505050565b60005481565b600080600160008581526020019081526020016000209050600073ffffffffffffffffffffffffffffffffffffffff168160010160009054906101000a900473ffffffffffffffffffffffffffffffffffffffff1673ffffffffffffffffffffffffffffffffffffffff1603612056576000915050612162565b8060010160009054906101000a900473ffffffffffffffffffffffffffffffffffffffff1673ffffffffffffffffffffffffffffffffffffffff168373ffffffffffffffffffffffffffffffffffffffff16148061215e5750600360008260010160009054906101000a900473ffffffffffffffffffffffffffffffffffffffff1673ffffffffffffffffffffffffffffffffffffffff1673ffffffffffffffffffffffffffffffffffffffff16815260200190815260200160002060008473ffffffffffffffffffffffffffffffffffffffff1673ffffffffffffffffffffffffffffffffffffffff16815260200190815260200160002060009054906101000a900460ff165b9150505b92915050565b80600073ffffffffffffffffffffffffffffffffffffffff166001600083815260200190815260200160002060010160009054906101000a900473ffffffffffffffffffffffffffffffffffffffff1673ffffffffffffffffffffffffffffffffffffffff1603612205576040517fb648cd7800000000000000000000000000000000000000000000000000000000815260040160405180910390fd5b816000600160008381526020019081526020016000209050600073ffffffffffffffffffffffffffffffffffffffff168160010160009054906101000a900473ffffffffffffffffffffffffffffffffffffffff1673ffffffffffffffffffffffffffffffffffffffff16036122a7576040517fb648cd7800000000000000000000000000000000000000000000000000000000815260040160405180910390fd5b8060010160009054906101000a900473ffffffffffffffffffffffffffffffffffffffff1673ffffffffffffffffffffffffffffffffffffffff163373ffffffffffffffffffffffffffffffffffffffff16141580156123b25750600360008260010160009054906101000a900473ffffffffffffffffffffffffffffffffffffffff1673ffffffffffffffffffffffffffffffffffffffff1673ffffffffffffffffffffffffffffffffffffffff16815260200190815260200160002060003373ffffffffffffffffffffffffffffffffffffffff1673ffffffffffffffffffffffffffffffffffffffff16815260200190815260200160002060009054906101000a900460ff16155b156123e9576040517f82b4290000000000000000000000000000000000000000000000000000000000815260040160405180910390fd5b600060016000868152602001908152602001600020905060006003811115612414576124136127a7565b5b8160070160009054906101000a900460ff166003811115612438576124376127a7565b5b1461246f576040517ff525e32000000000000000000000000000000000000000000000000000000000815260040160405180910390fd5b60018160070160006101000a81548160ff02191690836003811115612497576124966127a7565b5b0217905550428160080181905550847ff9bff4b34d6fa57e01d63510c660f9887360487534a843de065e6fba2b29851a60405160405180910390a25050505050565b600080600160008581526020019081526020016000209050600380811115612504576125036127a7565b5b8160070160009054906101000a900460ff166003811115612528576125276127a7565b5b14612537576000915050612611565b6002600085815260200190815260200160002060008473ffffffffffffffffffffffffffffffffffffffff1673ffffffffffffffffffffffffffffffffffffffff1681526020019081526020016000206000600260ff168152602001908152602001600020546002600086815260200190815260200160002060008573ffffffffffffffffffffffffffffffffffffffff1673ffffffffffffffffffffffffffffffffffffffff1681526020019081526020016000206000600160ff1681526020019081526020016000205461260d9190612c91565b9150505b92915050565b600080820361262857839050612653565b60008383866126379190613216565b6126419190613287565b9050808561264f9190612c91565b9150505b9392505050565b600080fd5b600080fd5b6000819050919050565b61267781612664565b811461268257600080fd5b50565b6000813590506126948161266e565b92915050565b6000602082840312156126b0576126af61265a565b5b60006126be84828501612685565b91505092915050565b6126d081612664565b82525050565b600073ffffffffffffffffffffffffffffffffffffffff82169050919050565b6000612701826126d6565b9050919050565b612711816126f6565b82525050565b600081519050919050565b600082825260208201905092915050565b60005b83811015612751578082015181840152602081019050612736565b60008484015250505050565b6000601f19601f8301169050919050565b600061277982612717565b6127838185612722565b9350612793818560208601612733565b61279c8161275d565b840191505092915050565b7f4e487b7100000000000000000000000000000000000000000000000000000000600052602160045260246000fd5b600481106127e7576127e66127a7565b5b50565b60008190506127f8826127d6565b919050565b6000612808826127ea565b9050919050565b612818816127fd565b82525050565b600060ff82169050919050565b6128348161281e565b82525050565b600061014082019050612850600083018d6126c7565b61285d602083018c612708565b818103604083015261286f818b61276e565b90508181036060830152612883818a61276e565b90508181036080830152612897818961276e565b90506128a660a08301886126c7565b6128b360c08301876126c7565b6128c060e083018661280f565b6128ce61010083018561282b565b6128dc6101208301846126c7565b9b9a5050505050505050505050565b6128f48161281e565b81146128ff57600080fd5b50565b600081359050612911816128eb565b92915050565b6000806040838503121561292e5761292d61265a565b5b600061293c85828601612685565b925050602061294d85828601612902565b9150509250929050565b612960816126f6565b811461296b57600080fd5b50565b60008135905061297d81612957565b92915050565b6000806040838503121561299a5761299961265a565b5b60006129a885828601612685565b92505060206129b98582860161296e565b9150509250929050565b60006020820190506129d860008301846126c7565b92915050565b6000602082840312156129f4576129f361265a565b5b6000612a028482850161296e565b91505092915050565b600080fd5b600080fd5b600080fd5b60008083601f840112612a3057612a2f612a0b565b5b8235905067ffffffffffffffff811115612a4d57612a4c612a10565b5b602083019150836001820283011115612a6957612a68612a15565b5b9250929050565b60008060008060008060006080888a031215612a8f57612a8e61265a565b5b6000612a9d8a828b0161296e565b975050602088013567ffffffffffffffff811115612abe57612abd61265f565b5b612aca8a828b01612a1a565b9650965050604088013567ffffffffffffffff811115612aed57612aec61265f565b5b612af98a828b01612a1a565b9450945050606088013567ffffffffffffffff811115612b1c57612b1b61265f565b5b612b288a828b01612a1a565b925092505092959891949750929550565b60008060408385031215612b5057612b4f61265a565b5b6000612b5e8582860161296e565b9250506020612b6f8582860161296e565b9150509250929050565b60008115159050919050565b612b8e81612b79565b82525050565b6000602082019050612ba96000830184612b85565b92915050565b600080600060608486031215612bc857612bc761265a565b5b6000612bd686828701612685565b9350506020612be78682870161296e565b9250506040612bf886828701612902565b9150509250925092565b7f4e487b7100000000000000000000000000000000000000000000000000000000600052602260045260246000fd5b60006002820490506001821680612c4957607f821691505b602082108103612c5c57612c5b612c02565b5b50919050565b7f4e487b7100000000000000000000000000000000000000000000000000000000600052601160045260246000fd5b6000612c9c82612664565b9150612ca783612664565b9250828201905080821115612cbf57612cbe612c62565b5b92915050565b6000604082019050612cda600083018561282b565b612ce760208301846126c7565b9392505050565b600081905092915050565b50565b6000612d09600083612cee565b9150612d1482612cf9565b600082019050919050565b6000612d2a82612cfc565b9150819050919050565b6000602082019050612d49600083018461282b565b92915050565b7f4e6f742073747265616d6572206f72206d6f64657261746f7200000000000000600082015250565b6000612d85601983612722565b9150612d9082612d4f565b602082019050919050565b60006020820190508181036000830152612db481612d78565b9050919050565b7f5469746c65207265717569726564000000000000000000000000000000000000600082015250565b6000612df1600e83612722565b9150612dfc82612dbb565b602082019050919050565b60006020820190508181036000830152612e2081612de4565b9050919050565b7f4f7074696f6e7320726571756972656400000000000000000000000000000000600082015250565b6000612e5d601083612722565b9150612e6882612e27565b602082019050919050565b60006020820190508181036000830152612e8c81612e50565b9050919050565b6000612e9e82612664565b91507fffffffffffffffffffffffffffffffffffffffffffffffffffffffffffffffff8203612ed057612ecf612c62565b5b600182019050919050565b7f4e487b7100000000000000000000000000000000000000000000000000000000600052604160045260246000fd5b60008190508160005260206000209050919050565b60006020601f8301049050919050565b600082821b905092915050565b600060088302612f6c7fffffffffffffffffffffffffffffffffffffffffffffffffffffffffffffffff82612f2f565b612f768683612f2f565b95508019841693508086168417925050509392505050565b6000819050919050565b6000612fb3612fae612fa984612664565b612f8e565b612664565b9050919050565b6000819050919050565b612fcd83612f98565b612fe1612fd982612fba565b848454612f3c565b825550505050565b600090565b612ff6612fe9565b613001818484612fc4565b505050565b5b818110156130255761301a600082612fee565b600181019050613007565b5050565b601f82111561306a5761303b81612f0a565b61304484612f1f565b81016020851015613053578190505b61306761305f85612f1f565b830182613006565b50505b505050565b600082821c905092915050565b600061308d6000198460080261306f565b1980831691505092915050565b60006130a6838361307c565b9150826002028217905092915050565b6130bf82612717565b67ffffffffffffffff8111156130d8576130d7612edb565b5b6130e28254612c31565b6130ed828285613029565b600060209050601f831160018114613120576000841561310e578287015190505b613118858261309a565b865550613180565b601f19841661312e86612f0a565b60005b8281101561315657848901518255600182019150602085019450602081019050613131565b86831015613173578489015161316f601f89168261307c565b8355505b6001600288020188555050505b505050505050565b82818337600083830152505050565b60006131a38385612722565b93506131b0838584613188565b6131b98361275d565b840190509392505050565b600060608201905081810360008301526131df81888a613197565b905081810360208301526131f4818688613197565b90508181036040830152613209818486613197565b9050979650505050505050565b600061322182612664565b915061322c83612664565b925082820261323a81612664565b9150828204841483151761325157613250612c62565b5b5092915050565b7f4e487b7100000000000000000000000000000000000000000000000000000000600052601260045260246000fd5b600061329282612664565b915061329d83612664565b9250826132ad576132ac613258565b5b82820490509291505056fea26469706673582212202884726c6cd63b2c8c5cc11336925c688830bcdf317891e3e2834e2530c2632364736f6c634300081c0033",
  "linkReferences": {},
  "deployedLinkReferences": {}
}