{
  "_format": "hh-sol-artifact-1",
  "contractName": "PredictionFactoryUSDC",
  "sourceName": "contracts/PredictionFactoryUSDC.sol",
  "abi": [
    {
      "inputs": [
        {
          "internalType": "address",
          "name": "_usdc",
          "type": "address"
        }
      ],
      "stateMutability": "nonpayable",
      "type": "constructor"
    },
    {
      "inputs": [],
      "name": "InvalidAmount",
      "type": "error"
    },
    {
      "inputs": [],
      "name": "InvalidOption",
      "type": "error"
    },
    {
      "inputs": [],
      "name": "InvalidStatus",
      "type": "error"
    },
    {
      "inputs": [],
      "name": "NoBetToClaim",
      "type": "error"
    },
    {
      "inputs": [],
      "name": "PredictionNotFound",
      "type": "error"
    },
    {
      "inputs": [],
      "name": "TransferFailed",
      "type": "error"
    },
    {
      "inputs": [],
      "name": "Unauthorized",
      "type": "error"
    },
    {
      "anonymous": false,
      "inputs": [
        {
          "indexed": true,
          "internalType": "uint256",
          "name": "predictionId",
          "type": "uint256"
        },
        {
          "indexed": true,
          "internalType": "address",
          "name": "user",
          "type": "address"
        },
        {
          "indexed": false,
          "internalType": "uint8",
          "name": "option",
          "type": "uint8"
        },
        {
          "indexed": false,
          "internalType": "uint256",
          "name": "amount",
          "type": "uint256"
        }
      ],
      "name": "BetPlaced",
      "type": "event"
    },
    {
      "anonymous": false,
      "inputs": [
        {
          "indexed": true,
          "internalType": "uint256",
          "name": "predictionId",
          "type": "uint256"
        },
        {
          "indexed": true,
          "internalType": "address",
          "name": "user",
          "type": "address"
        },
        {
          "indexed": false,
          "internalType": "uint256",
          "name": "amount",
          "type": "uint256"
        }
      ],
      "name": "PayoutClaimed",
      "type": "event"
    },
    {
      "anonymous": false,
      "inputs": [
        {
          "indexed": true,
          "internalType": "uint256",
          "name": "predictionId",
          "type": "uint256"
        }
      ],
      "name": "PredictionCancelled",
      "type": "event"
    },
    {
      "anonymous": false,
      "inputs": [
        {
          "indexed": true,
          "internalType": "uint256",
          "name": "predictionId",
          "type": "uint256"
        },
        {
          "indexed": true,
          "internalType": "address",
          "name": "streamer",
          "type": "address"
        },
        {
          "indexed": false,
          "internalType": "string",
          "name": "title",
          "type": "string"
        },
        {
          "indexed": false,
          "internalType": "string",
          "name": "option1",
          "type": "string"
        },
        {
          "indexed": false,
          "internalType": "string",
          "name": "option2",
          "type": "string"
        }
      ],
      "name": "PredictionCreated",
      "type": "event"
    },
    {
      "anonymous": false,
      "inputs": [
        {
          "indexed": true,
          "internalType": "uint256",
          "name": "predictionId",
          "type": "uint256"
        }
      ],
      "name": "PredictionLocked",
      "type": "event"
    },
    {
      "anonymous": false,
      "inputs": [
        {
          "indexed": true,
          "internalType": "uint256",
          "name": "predictionId",
          "type": "uint256"
        },
        {
          "indexed": false,
          "internalType": "uint8",
          "name": "winningOption",
          "type": "uint8"
        }
      ],
      "name": "PredictionResolved",
      "type": "event"
    },
    {
      "inputs": [
        {
          "internalType": "address",
          "name": "moderator",
          "type": "address"
        }
      ],
      "name": "addStreamerModerator",
      "outputs": [],
      "stateMutability": "nonpayable",
      "type": "function"
    },
    {
      "inputs": [
        {
          "internalType": "uint256",
          "name": "predictionId",
          "type": "uint256"
        },
        {
          "internalType": "address",
          "name": "account",
          "type": "address"
        }
      ],
      "name": "canManagePrediction",
      "outputs": [
        {
          "internalType": "bool",
          "name": "",
          "type": "bool"
        }
      ],
      "stateMutability": "view",
      "type": "function"
    },
    {
      "inputs": [
        {
          "internalType": "uint256",
          "name": "predictionId",
          "type": "uint256"
        }
      ],
      "name": "cancelPrediction",
      "outputs": [],
      "stateMutability": "nonpayable",
      "type": "function"
    },
    {
      "inputs": [
        {
          "internalType": "uint256",
          "name": "predictionId",
          "type": "uint256"
        }
      ],
      "name": "claimRefund",
      "outputs": [],
      "stateMutability": "nonpayable",
      "type": "function"
    },
    {
      "inputs": [
        {
          "internalType": "uint256",
          "name": "predictionId",
          "type": "uint256"
        }
      ],
      "name": "claimWinnings",
      "outputs": [],
      "stateMutability": "nonpayable",
      "type": "function"
    },
    {
      "inputs": [
        {
          "internalType": "address",
          "name": "streamer",
          "type": "address"
        },
        {
          "internalType": "string",
          "name": "title",
          "type": "string"
        },
        {
          "internalType": "string",
          "name": "option1",
          "type": "string"
        },
        {
          "internalType": "string",
          "name": "option2",
          "type": "string"
        }
      ],
      "name": "createPrediction",
      "outputs": [
        {
          "internalType": "uint256",
          "name": "predictionId",
          "type": "uint256"
        }
      ],
      "stateMutability": "nonpayable",
      "type": "function"
    },
    {
      "inputs": [
        {
          "internalType": "uint256",
          "name": "predictionId",
          "type": "uint256"
        },
        {
          "internalType": "address",
          "name": "user",
          "type": "address"
        }
      ],
      "name": "getPayout",
      "outputs": [
        {
          "internalType": "uint256",
          "name": "",
          "type": "uint256"
        }
      ],
      "stateMutability": "view",
      "type": "function"
    },
    {
      "inputs": [
        {
          "internalType": "uint256",
          "name": "predictionId",
          "type": "uint256"
        },
        {
          "internalType": "address",
          "name": "user",
          "type": "address"
        }
      ],
      "name": "getRefundAmount",
      "outputs": [
        {
          "internalType": "uint256",
          "name": "",
          "type": "uint256"
        }
      ],
      "stateMutability": "view",
      "type": "function"
    },
    {
      "inputs": [
        {
          "internalType": "uint256",
          "name": "predictionId",
          "type": "uint256"
        }
      ],
      "name": "lockPrediction",
      "outputs": [],
      "stateMutability": "nonpayable",
      "type": "function"
    },
    {
      "inputs": [],
      "name": "nextPredictionId",
      "outputs": [
        {
          "internalType": "uint256",
          "name": "",
          "type": "uint256"
        }
      ],
      "stateMutability": "view",
      "type": "function"
    },
    {
      "inputs": [
        {
          "internalType": "uint256",
          "name": "predictionId",
          "type": "uint256"
        },
        {
          "internalType": "uint8",
          "name": "option",
          "type": "uint8"
        },
        {
          "internalType": "uint256",
          "name": "amount",
          "type": "uint256"
        }
      ],
      "name": "placeBet",
      "outputs": [],
      "stateMutability": "nonpayable",
      "type": "function"
    },
    {
      "inputs": [
        {
          "internalType": "uint256",
          "name": "",
          "type": "uint256"
        }
      ],
      "name": "predictions",
      "outputs": [
        {
          "internalType": "uint256",
          "name": "id",
          "type": "uint256"
        },
        {
          "internalType": "address",
          "name": "streamer",
          "type": "address"
        },
        {
          "internalType": "string",
          "name": "title",
          "type": "string"
        },
        {
          "internalType": "string",
          "name": "option1",
          "type": "string"
        },
        {
          "internalType": "string",
          "name": "option2",
          "type": "string"
        },
        {
          "internalType": "uint256",
          "name": "totalBetOption1",
          "type": "uint256"
        },
        {
          "internalType": "uint256",
          "name": "totalBetOption2",
          "type": "uint256"
        },
        {
          "internalType": "enum PredictionFactoryUSDC.PredictionStatus",
          "name": "status",
          "type": "uint8"
        },
        {
          "internalType": "uint8",
          "name": "winningOption",
          "type": "uint8"
        },
        {
          "internalType": "uint256",
          "name": "lockTimestamp",
          "type": "uint256"
        }
      ],
      "stateMutability": "view",
      "type": "function"
    },
    {
      "inputs": [
        {
          "internalType": "address",
          "name": "moderator",
          "type": "address"
        }
      ],
      "name": "removeStreamerModerator",
      "outputs": [],
      "stateMutability": "nonpayable",
      "type": "function"
    },
    {
      "inputs": [
        {
          "internalType": "uint256",
          "name": "predictionId",
          "type": "uint256"
        },
        {
          "internalType": "uint8",
          "name": "winningOption",
          "type": "uint8"
        }
      ],
      "name": "resolvePrediction",
      "outputs": [],
      "stateMutability": "nonpayable",
      "type": "function"
    },
    {
      "inputs": [
        {
          "internalType": "address",
          "name": "",
          "type": "address"
        },
        {
          "internalType": "address",
          "name": "",
          "type": "address"
        }
      ],
      "name": "streamerModerators",
      "outputs": [
        {
          "internalType": "bool",
          "name": "",
          "type": "bool"
        }
      ],
      "stateMutability": "view",
      "type": "function"
    },
    {
      "inputs": [],
      "name": "usdc",
      "outputs": [
        {
          "internalType": "contract IERC20",
          "name": "",
          "type": "address"
        }
      ],
      "stateMutability": "view",
      "type": "function"
    },
    {
      "inputs": [
        {
          "internalType": "uint256",
          "name": "",
          "type": "uint256"
        },
        {
          "internalType": "address",
          "name": "",
          "type": "address"
        },
        {
          "internalType": "uint8",
          "name": "",
          "type": "uint8"
        }
      ],
      "name": "userBets",
      "outputs": [
        {
          "internalType": "uint256",
          "name": "",
          "type": "uint256"
        }
      ],
      "stateMutability": "view",
      "type": "function"
    }
  ],
  "bytecode": "0x60a060405234801561001057600080fd5b5060405161360d38038061360d833981810160405281019061003291906100cf565b8073ffffffffffffffffffffffffffffffffffffffff1660808173ffffffffffffffffffffffffffffffffffffffff1681525050506100fc565b600080fd5b600073ffffffffffffffffffffffffffffffffffffffff82169050919050565b600061009c82610071565b9050919050565b6100ac81610091565b81146100b757600080fd5b50565b6000815190506100c9816100a3565b92915050565b6000602082840312156100e5576100e461006c565b5b60006100f3848285016100ba565b91505092915050565b6080516134e161012c6000396000818161071301528181610ae501528181610ed70152611eae01526134e16000f3fe608060405234801561001057600080fd5b506004361061010a5760003560e01c80639805e9f6116100a2578063d8d9292e11610071578063d8d9292e146102ce578063da866c48146102ec578063df0002a414610308578063e3fbfc7714610338578063f53bba09146103545761010a565b80639805e9f6146102365780639a18ec3614610252578063b42d78eb14610282578063d424e5a0146102b25761010a565b80635b7baf64116100de5780635b7baf64146101b2578063677bd9ff146101ce5780636aaea6dc146101ea5780637e4d8509146102065761010a565b80624fbbb01461010f5780632ae3499c146101485780633e413bee1461017857806355c0712214610196575b600080fd5b61012960048036038101906101249190612757565b610384565b60405161013f9a999897969594939291906128f7565b60405180910390f35b610162600480360381019061015d91906129d4565b6105aa565b60405161016f9190612a14565b60405180910390f35b610180610711565b60405161018d9190612a8e565b60405180910390f35b6101b060048036038101906101ab9190612aa9565b610735565b005b6101cc60048036038101906101c79190612757565b6107cd565b005b6101e860048036038101906101e39190612757565b610c0e565b005b61020460048036038101906101ff9190612b02565b611001565b005b610220600480360381019061021b9190612ba7565b6113e1565b60405161022d9190612a14565b60405180910390f35b610250600480360381019061024b9190612aa9565b611855565b005b61026c60048036038101906102679190612c70565b6118ed565b6040516102799190612ccb565b60405180910390f35b61029c60048036038101906102979190612ce6565b61191c565b6040516102a99190612a14565b60405180910390f35b6102cc60048036038101906102c79190612757565b61194e565b005b6102d6611cfa565b6040516102e39190612a14565b60405180910390f35b61030660048036038101906103019190612d39565b611d00565b005b610322600480360381019061031d91906129d4565b61209f565b60405161032f9190612ccb565b60405180910390f35b610352600480360381019061034d9190612757565b61222b565b005b61036e600480360381019061036991906129d4565b61259c565b60405161037b9190612a14565b60405180910390f35b60016020528060005260406000206000915090508060000154908060010160009054906101000a900473ffffffffffffffffffffffffffffffffffffffff16908060020180546103d390612dbb565b80601f01602080910402602001604051908101604052809291908181526020018280546103ff90612dbb565b801561044c5780601f106104215761010080835404028352916020019161044c565b820191906000526020600020905b81548152906001019060200180831161042f57829003601f168201915b50505050509080600301805461046190612dbb565b80601f016020809104026020016040519081016040528092919081815260200182805461048d90612dbb565b80156104da5780601f106104af576101008083540402835291602001916104da565b820191906000526020600020905b8154815290600101906020018083116104bd57829003601f168201915b5050505050908060040180546104ef90612dbb565b80601f016020809104026020016040519081016040528092919081815260200182805461051b90612dbb565b80156105685780601f1061053d57610100808354040283529160200191610568565b820191906000526020600020905b81548152906001019060200180831161054b57829003601f168201915b5050505050908060050154908060060154908060070160009054906101000a900460ff16908060070160019054906101000a900460ff1690806008015490508a565b600080600160008581526020019081526020016000209050600260038111156105d6576105d5612864565b5b8160070160009054906101000a900460ff1660038111156105fa576105f9612864565b5b1461060957600091505061070b565b60006002600086815260200190815260200160002060008573ffffffffffffffffffffffffffffffffffffffff1673ffffffffffffffffffffffffffffffffffffffff16815260200190815260200160002060008360070160019054906101000a900460ff1660ff1660ff168152602001908152602001600020549050600081036106995760009250505061070b565b600060018360070160019054906101000a900460ff1660ff16146106c15782600601546106c7565b82600501545b9050600060018460070160019054906101000a900460ff1660ff16146106f15783600501546106f7565b83600601545b90506107048383836126d4565b9450505050505b92915050565b7f000000000000000000000000000000000000000000000000000000000000000081565b6001600360003373ffffffffffffffffffffffffffffffffffffffff1673ffffffffffffffffffffffffffffffffffffffff16815260200190815260200160002060008373ffffffffffffffffffffffffffffffffffffffff1673ffffffffffffffffffffffffffffffffffffffff16815260200190815260200160002060006101000a81548160ff02191690831515021790555050565b80600073ffffffffffffffffffffffffffffffffffffffff166001600083815260200190815260200160002060010160009054906101000a900473ffffffffffffffffffffffffffffffffffffffff1673ffffffffffffffffffffffffffffffffffffffff160361086a576040517fb648cd7800000000000000000000000000000000000000000000000000000000815260040160405180910390fd5b600060016000848152602001908152602001600020905060038081111561089457610893612864565b5b8160070160009054906101000a900460ff1660038111156108b8576108b7612864565b5b146108ef576040517ff525e32000000000000000000000000000000000000000000000000000000000815260040160405180910390fd5b60006002600085815260200190815260200160002060003373ffffffffffffffffffffffffffffffffffffffff1673ffffffffffffffffffffffffffffffffffffffff1681526020019081526020016000206000600160ff16815260200190815260200160002054905060006002600086815260200190815260200160002060003373ffffffffffffffffffffffffffffffffffffffff1673ffffffffffffffffffffffffffffffffffffffff1681526020019081526020016000206000600260ff168152602001908152602001600020549050600081836109d19190612e1b565b905060008103610a0d576040517f2f42cbdd00000000000000000000000000000000000000000000000000000000815260040160405180910390fd5b60006002600088815260200190815260200160002060003373ffffffffffffffffffffffffffffffffffffffff1673ffffffffffffffffffffffffffffffffffffffff1681526020019081526020016000206000600160ff1681526020019081526020016000208190555060006002600088815260200190815260200160002060003373ffffffffffffffffffffffffffffffffffffffff1673ffffffffffffffffffffffffffffffffffffffff1681526020019081526020016000206000600260ff168152602001908152602001600020819055507f000000000000000000000000000000000000000000000000000000000000000073ffffffffffffffffffffffffffffffffffffffff1663a9059cbb33836040518363ffffffff1660e01b8152600401610b3e929190612e4f565b6020604051808303816000875af1158015610b5d573d6000803e3d6000fd5b505050506040513d601f19601f82011682018060405250810190610b819190612ea4565b610bb7576040517f90b8ec1800000000000000000000000000000000000000000000000000000000815260040160405180910390fd5b3373ffffffffffffffffffffffffffffffffffffffff16867fe97cee5a4c0549d3fdc81e322b718ddf0aeb3418ec87dce4f9a7fb28d117c31283604051610bfe9190612a14565b60405180910390a3505050505050565b80600073ffffffffffffffffffffffffffffffffffffffff166001600083815260200190815260200160002060010160009054906101000a900473ffffffffffffffffffffffffffffffffffffffff1673ffffffffffffffffffffffffffffffffffffffff1603610cab576040517fb648cd7800000000000000000000000000000000000000000000000000000000815260040160405180910390fd5b600060016000848152602001908152602001600020905060026003811115610cd657610cd5612864565b5b8160070160009054906101000a900460ff166003811115610cfa57610cf9612864565b5b14610d31576040517ff525e32000000000000000000000000000000000000000000000000000000000815260040160405180910390fd5b60006002600085815260200190815260200160002060003373ffffffffffffffffffffffffffffffffffffffff1673ffffffffffffffffffffffffffffffffffffffff16815260200190815260200160002060008360070160019054906101000a900460ff1660ff1660ff16815260200190815260200160002054905060008103610de8576040517f2f42cbdd00000000000000000000000000000000000000000000000000000000815260040160405180910390fd5b600060018360070160019054906101000a900460ff1660ff1614610e10578260060154610e16565b82600501545b9050600060018460070160019054906101000a900460ff1660ff1614610e40578360050154610e46565b83600601545b905060006002600088815260200190815260200160002060003373ffffffffffffffffffffffffffffffffffffffff1673ffffffffffffffffffffffffffffffffffffffff16815260200190815260200160002060008660070160019054906101000a900460ff1660ff1660ff168152602001908152602001600020819055506000610ed38484846126d4565b90507f000000000000000000000000000000000000000000000000000000000000000073ffffffffffffffffffffffffffffffffffffffff1663a9059cbb33836040518363ffffffff1660e01b8152600401610f30929190612e4f565b6020604051808303816000875af1158015610f4f573d6000803e3d6000fd5b505050506040513d601f19601f82011682018060405250810190610f739190612ea4565b610fa9576040517f90b8ec1800000000000000000000000000000000000000000000000000000000815260040160405180910390fd5b3373ffffffffffffffffffffffffffffffffffffffff16877fe97cee5a4c0549d3fdc81e322b718ddf0aeb3418ec87dce4f9a7fb28d117c31283604051610ff09190612a14565b60405180910390a350505050505050565b81600073ffffffffffffffffffffffffffffffffffffffff166001600083815260200190815260200160002060010160009054906101000a900473ffffffffffffffffffffffffffffffffffffffff1673ffffffffffffffffffffffffffffffffffffffff160361109e576040517fb648cd7800000000000000000000000000000000000000000000000000000000815260040160405180910390fd5b826000600160008381526020019081526020016000209050600073ffffffffffffffffffffffffffffffffffffffff168160010160009054906101000a900473ffffffffffffffffffffffffffffffffffffffff1673ffffffffffffffffffffffffffffffffffffffff1603611140576040517fb648cd7800000000000000000000000000000000000000000000000000000000815260040160405180910390fd5b8060010160009054906101000a900473ffffffffffffffffffffffffffffffffffffffff1673ffffffffffffffffffffffffffffffffffffffff163373ffffffffffffffffffffffffffffffffffffffff161415801561124b5750600360008260010160009054906101000a900473ffffffffffffffffffffffffffffffffffffffff1673ffffffffffffffffffffffffffffffffffffffff1673ffffffffffffffffffffffffffffffffffffffff16815260200190815260200160002060003373ffffffffffffffffffffffffffffffffffffffff1673ffffffffffffffffffffffffffffffffffffffff16815260200190815260200160002060009054906101000a900460ff16155b15611282576040517f82b4290000000000000000000000000000000000000000000000000000000000815260040160405180910390fd5b6000600160008781526020019081526020016000209050600160038111156112ad576112ac612864565b5b8160070160009054906101000a900460ff1660038111156112d1576112d0612864565b5b14611308576040517ff525e32000000000000000000000000000000000000000000000000000000000815260040160405180910390fd5b60018560ff1614158015611320575060028560ff1614155b15611357576040517f2a71953100000000000000000000000000000000000000000000000000000000815260040160405180910390fd5b60028160070160006101000a81548160ff0219169083600381111561137f5761137e612864565b5b0217905550848160070160016101000a81548160ff021916908360ff160217905550857fa04cc8b95d889d00fb177cca0ed67477aef48c963dfbc778e45e8e8b8dfcc59d866040516113d19190612ed1565b60405180910390a2505050505050565b60008773ffffffffffffffffffffffffffffffffffffffff163373ffffffffffffffffffffffffffffffffffffffff1614806114a35750600360008973ffffffffffffffffffffffffffffffffffffffff1673ffffffffffffffffffffffffffffffffffffffff16815260200190815260200160002060003373ffffffffffffffffffffffffffffffffffffffff1673ffffffffffffffffffffffffffffffffffffffff16815260200190815260200160002060009054906101000a900460ff165b6114e2576040517f08c379a00000000000000000000000000000000000000000000000000000000081526004016114d990612f38565b60405180910390fd5b60008787905011611528576040517f08c379a000000000000000000000000000000000000000000000000000000000815260040161151f90612fa4565b60405180910390fd5b60008585905011801561153e5750600083839050115b61157d576040517f08c379a000000000000000000000000000000000000000000000000000000000815260040161157490613010565b60405180910390fd5b60008081548092919061158f90613030565b9190505590506040518061014001604052808281526020018973ffffffffffffffffffffffffffffffffffffffff16815260200188888080601f016020809104026020016040519081016040528093929190818152602001838380828437600081840152601f19601f82011690508083019250505050505050815260200186868080601f016020809104026020016040519081016040528093929190818152602001838380828437600081840152601f19601f82011690508083019250505050505050815260200184848080601f016020809104026020016040519081016040528093929190818152602001838380828437600081840152601f19601f8201169050808301925050505050505081526020016000815260200160008152602001600060038111156116c3576116c2612864565b5b8152602001600060ff1681526020016000815250600160008381526020019081526020016000206000820151816000015560208201518160010160006101000a81548173ffffffffffffffffffffffffffffffffffffffff021916908373ffffffffffffffffffffffffffffffffffffffff16021790555060408201518160020190816117509190613249565b5060608201518160030190816117669190613249565b50608082015181600401908161177c9190613249565b5060a0820151816005015560c0820151816006015560e08201518160070160006101000a81548160ff021916908360038111156117bc576117bb612864565b5b02179055506101008201518160070160016101000a81548160ff021916908360ff16021790555061012082015181600801559050508773ffffffffffffffffffffffffffffffffffffffff16817f6333b2d21de9af2471046735e88724e59048f103c335c44c4e6704e59c76801589898989898960405161184296959493929190613357565b60405180910390a3979650505050505050565b6000600360003373ffffffffffffffffffffffffffffffffffffffff1673ffffffffffffffffffffffffffffffffffffffff16815260200190815260200160002060008373ffffffffffffffffffffffffffffffffffffffff1673ffffffffffffffffffffffffffffffffffffffff16815260200190815260200160002060006101000a81548160ff02191690831515021790555050565b60036020528160005260406000206020528060005260406000206000915091509054906101000a900460ff1681565b600260205282600052604060002060205281600052604060002060205280600052604060002060009250925050505481565b80600073ffffffffffffffffffffffffffffffffffffffff166001600083815260200190815260200160002060010160009054906101000a900473ffffffffffffffffffffffffffffffffffffffff1673ffffffffffffffffffffffffffffffffffffffff16036119eb576040517fb648cd7800000000000000000000000000000000000000000000000000000000815260040160405180910390fd5b816000600160008381526020019081526020016000209050600073ffffffffffffffffffffffffffffffffffffffff168160010160009054906101000a900473ffffffffffffffffffffffffffffffffffffffff1673ffffffffffffffffffffffffffffffffffffffff1603611a8d576040517fb648cd7800000000000000000000000000000000000000000000000000000000815260040160405180910390fd5b8060010160009054906101000a900473ffffffffffffffffffffffffffffffffffffffff1673ffffffffffffffffffffffffffffffffffffffff163373ffffffffffffffffffffffffffffffffffffffff1614158015611b985750600360008260010160009054906101000a900473ffffffffffffffffffffffffffffffffffffffff1673ffffffffffffffffffffffffffffffffffffffff1673ffffffffffffffffffffffffffffffffffffffff16815260200190815260200160002060003373ffffffffffffffffffffffffffffffffffffffff1673ffffffffffffffffffffffffffffffffffffffff16815260200190815260200160002060009054906101000a900460ff16155b15611bcf576040517f82b4290000000000000000000000000000000000000000000000000000000000815260040160405180910390fd5b600060016000868152602001908152602001600020905060006003811115611bfa57611bf9612864565b5b8160070160009054906101000a900460ff166003811115611c1e57611c1d612864565b5b14158015611c62575060016003811115611c3b57611c3a612864565b5b8160070160009054906101000a900460ff166003811115611c5f57611c5e612864565b5b14155b15611c99576040517ff525e32000000000000000000000000000000000000000000000000000000000815260040160405180910390fd5b60038160070160006101000a81548160ff02191690836003811115611cc157611cc0612864565b5b0217905550847faf9d749692c27edb73692839024a98f047b114c6fd450acf3c702120928a2be260405160405180910390a25050505050565b60005481565b82600073ffffffffffffffffffffffffffffffffffffffff166001600083815260200190815260200160002060010160009054906101000a900473ffffffffffffffffffffffffffffffffffffffff1673ffffffffffffffffffffffffffffffffffffffff1603611d9d576040517fb648cd7800000000000000000000000000000000000000000000000000000000815260040160405180910390fd5b600060016000868152602001908152602001600020905060006003811115611dc857611dc7612864565b5b8160070160009054906101000a900460ff166003811115611dec57611deb612864565b5b14611e23576040517ff525e32000000000000000000000000000000000000000000000000000000000815260040160405180910390fd5b60018460ff1614158015611e3b575060028460ff1614155b15611e72576040517f2a71953100000000000000000000000000000000000000000000000000000000815260040160405180910390fd5b60008303611eac576040517f2c5211c600000000000000000000000000000000000000000000000000000000815260040160405180910390fd5b7f000000000000000000000000000000000000000000000000000000000000000073ffffffffffffffffffffffffffffffffffffffff166323b872dd3330866040518463ffffffff1660e01b8152600401611f09939291906133a9565b6020604051808303816000875af1158015611f28573d6000803e3d6000fd5b505050506040513d601f19601f82011682018060405250810190611f4c9190612ea4565b611f82576040517f90b8ec1800000000000000000000000000000000000000000000000000000000815260040160405180910390fd5b826002600087815260200190815260200160002060003373ffffffffffffffffffffffffffffffffffffffff1673ffffffffffffffffffffffffffffffffffffffff16815260200190815260200160002060008660ff1660ff1681526020019081526020016000206000828254611ff99190612e1b565b9250508190555060018460ff160361202b578281600501600082825461201f9190612e1b565b92505081905550612047565b8281600601600082825461203f9190612e1b565b925050819055505b3373ffffffffffffffffffffffffffffffffffffffff16857f4f1eed5e863a822b0f9eb960dfdab2cc5a99beec4b191f2a7a9c7e28e5a1552486866040516120909291906133e0565b60405180910390a35050505050565b600080600160008581526020019081526020016000209050600073ffffffffffffffffffffffffffffffffffffffff168160010160009054906101000a900473ffffffffffffffffffffffffffffffffffffffff1673ffffffffffffffffffffffffffffffffffffffff1603612119576000915050612225565b8060010160009054906101000a900473ffffffffffffffffffffffffffffffffffffffff1673ffffffffffffffffffffffffffffffffffffffff168373ffffffffffffffffffffffffffffffffffffffff1614806122215750600360008260010160009054906101000a900473ffffffffffffffffffffffffffffffffffffffff1673ffffffffffffffffffffffffffffffffffffffff1673ffffffffffffffffffffffffffffffffffffffff16815260200190815260200160002060008473ffffffffffffffffffffffffffffffffffffffff1673ffffffffffffffffffffffffffffffffffffffff16815260200190815260200160002060009054906101000a900460ff165b9150505b92915050565b80600073ffffffffffffffffffffffffffffffffffffffff166001600083815260200190815260200160002060010160009054906101000a900473ffffffffffffffffffffffffffffffffffffffff1673ffffffffffffffffffffffffffffffffffffffff16036122c8576040517fb648cd7800000000000000000000000000000000000000000000000000000000815260040160405180910390fd5b816000600160008381526020019081526020016000209050600073ffffffffffffffffffffffffffffffffffffffff168160010160009054906101000a900473ffffffffffffffffffffffffffffffffffffffff1673ffffffffffffffffffffffffffffffffffffffff160361236a576040517fb648cd7800000000000000000000000000000000000000000000000000000000815260040160405180910390fd5b8060010160009054906101000a900473ffffffffffffffffffffffffffffffffffffffff1673ffffffffffffffffffffffffffffffffffffffff163373ffffffffffffffffffffffffffffffffffffffff16141580156124755750600360008260010160009054906101000a900473ffffffffffffffffffffffffffffffffffffffff1673ffffffffffffffffffffffffffffffffffffffff1673ffffffffffffffffffffffffffffffffffffffff16815260200190815260200160002060003373ffffffffffffffffffffffffffffffffffffffff1673ffffffffffffffffffffffffffffffffffffffff16815260200190815260200160002060009054906101000a900460ff16155b156124ac576040517f82b4290000000000000000000000000000000000000000000000000000000000815260040160405180910390fd5b6000600160008681526020019081526020016000209050600060038111156124d7576124d6612864565b5b8160070160009054906101000a900460ff1660038111156124fb576124fa612864565b5b14612532576040517ff525e32000000000000000000000000000000000000000000000000000000000815260040160405180910390fd5b60018160070160006101000a81548160ff0219169083600381111561255a57612559612864565b5b0217905550428160080181905550847ff9bff4b34d6fa57e01d63510c660f9887360487534a843de065e6fba2b29851a60405160405180910390a25050505050565b60006003808111156125b1576125b0612864565b5b6001600085815260200190815260200160002060070160009054906101000a900460ff1660038111156125e7576125e6612864565b5b146125f557600090506126ce565b6002600084815260200190815260200160002060008373ffffffffffffffffffffffffffffffffffffffff1673ffffffffffffffffffffffffffffffffffffffff1681526020019081526020016000206000600260ff168152602001908152602001600020546002600085815260200190815260200160002060008473ffffffffffffffffffffffffffffffffffffffff1673ffffffffffffffffffffffffffffffffffffffff1681526020019081526020016000206000600160ff168152602001908152602001600020546126cb9190612e1b565b90505b92915050565b60008082036126e557839050612710565b60008383866126f49190613409565b6126fe919061347a565b9050808561270c9190612e1b565b9150505b9392505050565b600080fd5b600080fd5b6000819050919050565b61273481612721565b811461273f57600080fd5b50565b6000813590506127518161272b565b92915050565b60006020828403121561276d5761276c612717565b5b600061277b84828501612742565b91505092915050565b61278d81612721565b82525050565b600073ffffffffffffffffffffffffffffffffffffffff82169050919050565b60006127be82612793565b9050919050565b6127ce816127b3565b82525050565b600081519050919050565b600082825260208201905092915050565b60005b8381101561280e5780820151818401526020810190506127f3565b60008484015250505050565b6000601f19601f8301169050919050565b6000612836826127d4565b61284081856127df565b93506128508185602086016127f0565b6128598161281a565b840191505092915050565b7f4e487b7100000000000000000000000000000000000000000000000000000000600052602160045260246000fd5b600481106128a4576128a3612864565b5b50565b60008190506128b582612893565b919050565b60006128c5826128a7565b9050919050565b6128d5816128ba565b82525050565b600060ff82169050919050565b6128f1816128db565b82525050565b60006101408201905061290d600083018d612784565b61291a602083018c6127c5565b818103604083015261292c818b61282b565b90508181036060830152612940818a61282b565b90508181036080830152612954818961282b565b905061296360a0830188612784565b61297060c0830187612784565b61297d60e08301866128cc565b61298b6101008301856128e8565b612999610120830184612784565b9b9a5050505050505050505050565b6129b1816127b3565b81146129bc57600080fd5b50565b6000813590506129ce816129a8565b92915050565b600080604083850312156129eb576129ea612717565b5b60006129f985828601612742565b9250506020612a0a858286016129bf565b9150509250929050565b6000602082019050612a296000830184612784565b92915050565b6000819050919050565b6000612a54612a4f612a4a84612793565b612a2f565b612793565b9050919050565b6000612a6682612a39565b9050919050565b6000612a7882612a5b565b9050919050565b612a8881612a6d565b82525050565b6000602082019050612aa36000830184612a7f565b92915050565b600060208284031215612abf57612abe612717565b5b6000612acd848285016129bf565b91505092915050565b612adf816128db565b8114612aea57600080fd5b50565b600081359050612afc81612ad6565b92915050565b60008060408385031215612b1957612b18612717565b5b6000612b2785828601612742565b9250506020612b3885828601612aed565b9150509250929050565b600080fd5b600080fd5b600080fd5b60008083601f840112612b6757612b66612b42565b5b8235905067ffffffffffffffff811115612b8457612b83612b47565b5b602083019150836001820283011115612ba057612b9f612b4c565b5b9250929050565b60008060008060008060006080888a031215612bc657612bc5612717565b5b6000612bd48a828b016129bf565b975050602088013567ffffffffffffffff811115612bf557612bf461271c565b5b612c018a828b01612b51565b9650965050604088013567ffffffffffffffff811115612c2457612c2361271c565b5b612c308a828b01612b51565b9450945050606088013567ffffffffffffffff811115612c5357612c5261271c565b5b612c5f8a828b01612b51565b925092505092959891949750929550565b60008060408385031215612c8757612c86612717565b5b6000612c95858286016129bf565b9250506020612ca6858286016129bf565b9150509250929050565b60008115159050919050565b612cc581612cb0565b82525050565b6000602082019050612ce06000830184612cbc565b92915050565b600080600060608486031215612cff57612cfe612717565b5b6000612d0d86828701612742565b9350506020612d1e868287016129bf565b9250506040612d2f86828701612aed565b9150509250925092565b600080600060608486031215612d5257612d51612717565b5b6000612d6086828701612742565b9350506020612d7186828701612aed565b9250506040612d8286828701612742565b9150509250925092565b7f4e487b7100000000000000000000000000000000000000000000000000000000600052602260045260246000fd5b60006002820490506001821680612dd357607f821691505b602082108103612de657612de5612d8c565b5b50919050565b7f4e487b7100000000000000000000000000000000000000000000000000000000600052601160045260246000fd5b6000612e2682612721565b9150612e3183612721565b9250828201905080821115612e4957612e48612dec565b5b92915050565b6000604082019050612e6460008301856127c5565b612e716020830184612784565b9392505050565b612e8181612cb0565b8114612e8c57600080fd5b50565b600081519050612e9e81612e78565b92915050565b600060208284031215612eba57612eb9612717565b5b6000612ec884828501612e8f565b91505092915050565b6000602082019050612ee660008301846128e8565b92915050565b7f4e6f742073747265616d6572206f72206d6f64657261746f7200000000000000600082015250565b6000612f226019836127df565b9150612f2d82612eec565b602082019050919050565b60006020820190508181036000830152612f5181612f15565b9050919050565b7f5469746c65207265717569726564000000000000000000000000000000000000600082015250565b6000612f8e600e836127df565b9150612f9982612f58565b602082019050919050565b60006020820190508181036000830152612fbd81612f81565b9050919050565b7f4f7074696f6e7320726571756972656400000000000000000000000000000000600082015250565b6000612ffa6010836127df565b915061300582612fc4565b602082019050919050565b6000602082019050818103600083015261302981612fed565b9050919050565b600061303b82612721565b91507fffffffffffffffffffffffffffffffffffffffffffffffffffffffffffffffff820361306d5761306c612dec565b5b600182019050919050565b7f4e487b7100000000000000000000000000000000000000000000000000000000600052604160045260246000fd5b60008190508160005260206000209050919050565b60006020601f8301049050919050565b600082821b905092915050565b6000600883026131097fffffffffffffffffffffffffffffffffffffffffffffffffffffffffffffffff826130cc565b61311386836130cc565b95508019841693508086168417925050509392505050565b600061314661314161313c84612721565b612a2f565b612721565b9050919050565b6000819050919050565b6131608361312b565b61317461316c8261314d565b8484546130d9565b825550505050565b600090565b61318961317c565b613194818484613157565b505050565b5b818110156131b8576131ad600082613181565b60018101905061319a565b5050565b601f8211156131fd576131ce816130a7565b6131d7846130bc565b810160208510156131e6578190505b6131fa6131f2856130bc565b830182613199565b50505b505050565b600082821c905092915050565b600061322060001984600802613202565b1980831691505092915050565b6000613239838361320f565b9150826002028217905092915050565b613252826127d4565b67ffffffffffffffff81111561326b5761326a613078565b5b6132758254612dbb565b6132808282856131bc565b600060209050601f8311600181146132b357600084156132a1578287015190505b6132ab858261322d565b865550613313565b601f1984166132c1866130a7565b60005b828110156132e9578489015182556001820191506020850194506020810190506132c4565b868310156133065784890151613302601f89168261320f565b8355505b6001600288020188555050505b505050505050565b82818337600083830152505050565b600061333683856127df565b935061334383858461331b565b61334c8361281a565b840190509392505050565b6000606082019050818103600083015261337281888a61332a565b9050818103602083015261338781868861332a565b9050818103604083015261339c81848661332a565b9050979650505050505050565b60006060820190506133be60008301866127c5565b6133cb60208301856127c5565b6133d86040830184612784565b949350505050565b60006040820190506133f560008301856128e8565b6134026020830184612784565b9392505050565b600061341482612721565b915061341f83612721565b925082820261342d81612721565b9150828204841483151761344457613443612dec565b5b5092915050565b7f4e487b7100000000000000000000000000000000000000000000000000000000600052601260045260246000fd5b600061348582612721565b915061349083612721565b9250826134a05761349f61344b565b5b82820490509291505056fea26469706673582212204fd2cf0b9b637b15555eece6113f9f6498228b4c5b3f0fc38c78c1f1342dd0e664736f6c634300081c0033",
  "linkReferences": {},
  "deployedLinkReferences": {}
}